:020000040800F2
:10000000FCFF04208D3B010801400108014001086C
:1000100001400108014001080140010801400108B8
:1000200001400108014001080140010801400108A8
:100030000140010801400108014001080140010898
:100040000140010801400108014001080140010888
:100050000140010801400108014001080140010878
:100060000140010801400108014001080140010868
:100070000140010801400108014001080140010858
:100080000140010801400108014001080140010848
:100090000140010801400108014001080140010838
:1000A0000140010801400108014001080140010828
:1000B0006D3B0108014001080140010801400108B1
:1000C0000140010801400108014001080140010808
:1000D0000140010801400108453B010801400108B9
:1000E00001400108014001080140010801400108E8
:1000F00001400108014001080140010801400108D8
:1001000001400108014001080140010801400108C7
:1001100001400108014001080140010801400108B7
:1001200001400108014001080140010801400108A7
:100130000140010801400108014001080140010897
:100140000140010801400108014001080140010887
:100150000140010801400108014001080140010877
:100160000140010801400108014001080140010867
:100170000140010801400108014001080140010857
:100180000140010801400108014001080140010847
:100190000140010801400108014001080140010837
:1001A0000140010801400108014001080140010827
:1001B0000140010801400108014001080140010817
:1001C000014001080140010881B0034A116860F351
:1001D000C301116001B070472C2C014081B002496D
:1001E000086001B0704700BF802C014083B0CDF89B
:1001F00000E00346029101F0E1FD2B4A1278042A47
:1002000001D1184600E05802FF220146182001F0F3
:100210008BFD18B101F064FF012040E0FF20234C6A
:100220002468A047FF20214C2468A047FE201F4CD3
:100230002468A047002040F2FF1290420FD8029A93
:1002400012181278D4B2ADF80400A0B2174C24688A
:10025000A047BDF80400421C91B288B2EBE7FF2032
:10026000124C2468A047FF20104C2468A047FF20B0
:100270000E4C2468A04700F01F0292B2052A03D05A
:1002800001F02EFF02200AE0FF20084C2468A0475E
:10029000B0F1FF0F00D0F7E701F022FF0020DDF8FA
:1002A00000E003B0704700BF97160020B82C002074
:1002B00085B0CDF800E00346029101F07FFD1E4AB3
:1002C0001278042A01D1184600E05802FF220146A4
:1002D000112001F029FD18B101F002FF012027E0F3
:1002E000FF20164C2468A047FE2800D0F8E7002322
:1002F00099B2B1F5007F10D2029A52180492ADF86B
:100300000410FF200D4C2468A047BDF80410049A87
:1003100010704A1C93B299B2EBE7FF20074C246897
:10032000A047FF20054C2468A04701F0D9FE00201B
:10033000DDF800E005B0704797160020B82C0020CB
:1003400084B0CDF800E0064600228DF80C204FF076
:1003500000040D4609B9012057E1AD4BAD4A1360C9
:100360000023AD4A13604FF00003AC4A13604FF016
:100370000003AB4A13604FF00003AA4A13604FF02A
:100380000003A94A1360A34800F08AFA0020FFF78F
:100390001BFFA64A126802F000720AB1012034E184
:1003A000A34A1268022A02D13046064600E07602CD
:1003B00040F200239F4A136010239F4A13604FF0BE
:1003C00040039E4A13604FF000039D4A13604FF4B0
:1003D00080639C4A1360974800F0D8FD102000F01D
:1003E00039FD08B1012010E1974A12681304914ABF
:1003F00013600D23904A13604FF040038F4A13603F
:100400004FF000038E4A13604FF480638D4A1360EF
:10041000884800F0BBFD0D2000F01CFD08B1012054
:10042000F3E0824A11687A4801962646019C01F45D
:100430008072002A24D1002822D9421E1746824AFF
:10044000126813047B4A13600D237B4A13604FF03C
:1004500040037A4A13604FF00003794A13604FF467
:100460008063784A1360734800F090FD0D2000F01F
:10047000F1FC08B10120C8E06C4A11683846D6E7A3
:1004800008B90120C1E06B4A146018236A4A13605E
:100490004FF04003694A13604FF00003684A13604D
:1004A0004FF48063674A1360624800F06FFD1820C4
:1004B00000F0D0FC08B10120A7E040F20023634A1D
:1004C0001360534B534A136040F20023524A1360A7
:1004D0009023524A13604FF00003514A13604FF0CB
:1004E0000003504A13604FF001034F4A136049481C
:1004F00000F0D6F93446564A1368564A03EA020217
:10050000002A3ED14FF4804000F0FEF9002837D099
:100510004E4A1268121B202A20D24C4A1268121B23
:1005200002F003022AB9494A1268121B9208029289
:1005300005E0464A1268121B9208521C0292029B66
:1005400000269E4207D22A681046FFF747FE761C17
:100550002D1D241DF5E7284621460EE00023082B1B
:1005600007D29A00AA1812681046FFF737FE5B1CE4
:10057000F5E705F2200004F220010C460546FFE7EE
:10058000B9E74FF0080000F0BFF928B14FF00800BC
:1005900000F060FB012038E04FF0020000F0B4F9F9
:1005A00028B14FF0020000F055FB01202DE04FF084
:1005B000100000F0A9F928B14FF0100000F04AFB3C
:1005C000012022E04FF4007000F09EF928B14FF4B2
:1005D000007000F03FFB012017E01F4800F03AFBDD
:1005E00003AA104602F068F9C1B2C8B268B99DF812
:1005F0000C20072A04D09DF80C20062A00D004E025
:1006000003AA104602F058F9F0E7DDF800E025E013
:10061000FFFF0F00D02C0020D42C0020D82C00206D
:10062000DC2C0020E02C0020E42C0020142C0140C5
:10063000B8160020BC2C0020C02C0020C42C0020A8
:10064000C82C0020CC2C0020AC160020BC160020AA
:10065000342C01401A060000FF05000004B070476A
:1006600082B0CDF800E005460C4609B90120DBE078
:100670006F4B704A136000236F4A13604FF0000302
:100680006E4A13604FF000036D4A13604FF0000391
:100690006C4A13604FF000036B4A1360654800F02A
:1006A000FFF80020FFF790FD684A126802F0007220
:1006B0000AB10120B8E0664A1268022A02D128462F
:1006C000054600E06D0240F20023624A13601023E9
:1006D000614A13604FF04003604A13604FF000031B
:1006E0005F4A13604FF480635E4A1360594800F01C
:1006F0004DFC102000F0AEFBC6B208B1F0B293E0A2
:100700004B4B4C4A136040F200234B4A136090233A
:100710004A4A13604FF00203494A13604FF0000346
:10072000484A13604FF00103474A1360414800F004
:10073000B7F840F200234C4A1360464A1560112373
:10074000454A13604FF04003444A13604FF00003E2
:10075000434A13604FF48063424A13603D4800F0FF
:1007600015FC112000F076FB08B101205CE0254665
:10077000F4B23E4A13683E4A03EA0202C2B94FF499
:10078000004000F0C1F890B10023E1B2082B08D27C
:100790009A00AA18019200F07BF8019A10605B1C85
:1007A000F4E705F220021046CCB20546FFE7E0E789
:1007B0004FF0080000F0A8F828B14FF0080000F052
:1007C00049FA012030E04FF0020000F09DF828B116
:1007D0004FF0020000F03EFA012025E04FF020002B
:1007E00000F092F828B14FF0200000F033FA012019
:1007F0001AE04FF4007000F087F828B14FF4007051
:1008000000F028FA01200FE0E3B22C464FF400106C
:1008100000F07AF820B100F03BF82060241DF5E7E5
:10082000144800F017FAD8B2DDF800E002B07047C3
:10083000FFFF0F00D02C0020D42C0020D82C00204B
:10084000DC2C0020E02C0020E42C0020142C0140A3
:10085000B8160020BC2C0020C02C0020C42C002086
:10086000C82C0020CC2C0020BC160020342C0140C9
:100870002A060000FF05000081B0CDF800E0034C1F
:100880002468A047DDF800E001B07047CC160020D6
:1008900081B00248006801B0704700BF802C014061
:1008A00081B0026810490A60011D0A680F490A6098
:1008B0000F490A686FF0F70102EA010300F208012C
:1008C0000A6800F20C0109680A4300F21001096885
:1008D0000A4300F21401096842EA010143EA0102F5
:1008E00003490A6001B07047242C0140282C0140C4
:1008F0002C2C014081B0034A116860F38A211160F9
:1009000001B070472C2C014081B0044909680140B6
:1009100009B1012000E0002001B07047342C0140F3
:1009200081B000F20C02117000F208021368C3F3E8
:10093000000202B9F8E700F20C021278D0B201B05E
:100940007047000084B0CDF800E00C464FF0000581
:100950000DF1040B0BF1080ADFF8D8C112F0C6F94B
:100960000823754A13601023744A13604FF0400344
:10097000734A13604FF00003724A13604FF48063B0
:10098000714A13606C4800F001FB102000F062FA1D
:10099000C1B208B1C8B2C9E06C4A12681304664A11
:1009A00013603723654A13604FF04003644A1360B5
:1009B0004FF00003634A13604FF48063624A136090
:1009C0005D4800F0E3FA372000F044FAC1B208B104
:1009D000C8B2ABE05E4B5F4A136008235E4A136007
:1009E0004FF030035D4A13604FF002035C4A13601E
:1009F0004FF000035B4A13604FF001035A4A136043
:100A00005448FFF74DFF00234B4A136033234B4AF2
:100A100013604FF040034A4A13604FF00003494A05
:100A200013604FF48063484A1360434800F0AEFA05
:100A3000332000F00FFAC1B208B1C8B276E0274601
:100A40002C464A4A13684A4A03EA02028AB94FF41A
:100A50000010FFF759FF58B101ABA2009A1803929A
:100A6000FFF716FF039A1060621C10460446FFE76A
:100A7000E7E74FF00800FFF747FF28B14FF0080005
:100A800000F0E8F8012051E04FF00200FFF73CFFD2
:100A900028B14FF0020000F0DDF8012046E04FF0F1
:100AA0002000FFF731FF28B14FF0200000F0D2F80E
:100AB00001203BE04FF40070FFF726FF28B14FF410
:100AC000007000F0C7F8012030E02A4800F0C2F8BA
:100AD0003E1D01AD2C6804F0FF02130604F47F42B2
:100AE0001202134304F47F02120A134304F07F42FC
:100AF000120E43EA020232602A1D126802F0FF025F
:100B000013062A1D126802F47F42120213432A1DA3
:100B1000126802F47F02120A13432A1D126802F0BF
:100B20007F42120E43EA02023A600020DDF800E044
:100B300004B0704748EC0108BC2C0020C02C0020F9
:100B4000C42C0020C82C0020CC2C0020AC16002087
:100B5000FFFF0F00D02C0020D42C0020D82C002028
:100B6000DC2C0020E02C0020E42C0020342C014060
:100B70002A060000FF05000081B0CDF800E0FF204C
:100B8000044C2468A047FE2800D0F8E7DDF800E018
:100B900001B07047B82C002081B0C31C002004288D
:100BA00006D20A781A70491C5B1E401CC0B2F6E7D8
:100BB00001B0704781B00022112A09D20649891874
:100BC0000978814201D1012003E0521CD2B2F3E73F
:100BD000002001B0704700BFECEB010881B0024873
:100BE000006801B0704700BF102C014081B0CDF803
:100BF00000E0034C2468A047DDF800E001B0704736
:100C0000C816002081B0CDF800E0FFF735FE10B126
:100C1000FF2040B201E0002040B2DDF800E001B06A
:100C20007047FFFF81B0392803D8302801D3012154
:100C300000E00021C8B201B07047FFFF81B05A2820
:100C400003D8412801D3012100E00021C8B201B03E
:100C50007047FFFF81B00249086001B0704700BFD4
:100C6000382C014081B07A2803D8612801D30121B2
:100C700000E00021C8B201B07047FFFF81B000F270
:100C80000C02116000F208021368C3F3000202B9FB
:100C9000F8E700F20C02126890B201B07047FFFF53
:100CA00081B0019F041D25680A4C05EA04064C002A
:100CB000A4B2A5B2084C2540D4B2240404F47F04A5
:100CC00045EA04041C433C4346EA0405041D256030
:100CD00001B07047009800FCFF03000081B0031DC5
:100CE0001A68034902EA0101196001B0704700BFA8
:100CF00000E800FE81B05A2805D8412804D340F00E
:100D00002001C8B2FFE7FFE701B0704781B0024998
:100D1000086001B0704700BF002C014081B003485B
:100D2000006800F0030001B0704700BF002C0140D4
:100D300082B0CDF800E000221649174803680193FD
:100D40000B46019901F0450028B9002B03D95B1E21
:100D500011480168F6E71BB101F0040000B906E094
:100D600001224FF00400FFF775FFD0B20DE001F053
:100D7000010030B101224FF00100FFF76BFFD0B24C
:100D800003E00648FFF766FFD0B2DDF800E002B0EE
:100D9000704700BF10270000342C0140FF05000001
:100DA00082B0CDF800E011491148026801920A466C
:100DB000019901F0450028B9002A03D9521E0C48B8
:100DC0000168F6E71AB101F0040000B905E04FF040
:100DD0000400FFF73FFF012003E00648FFF73AFF5A
:100DE0000020DDF800E002B0704700BF10270000CF
:100DF000342C0140FF05000082B0CDF800E013491B
:100E00001348026801920A46019901F0450028B989
:100E1000002A03D9521E0E480168F6E71AB101F004
:100E2000040000B905E04FF00400FFF713FF0120B4
:100E300007E001F0400018B14FF04000FFF70AFF53
:100E40000020DDF800E002B0704700BF102700006E
:100E5000342C014082B0CDF800E0474A47490B6886
:100E600001931346C2B2019800F0450129B9002B45
:100E700003D95B1E41490868F6E700F0040109B98F
:100E800003B105E04FF00400FFF7E4FE01206FE03E
:100E900000F0010129B14FF00100FFF7DBFE012056
:100EA00066E0FFF79BFE904201D0012060E03448ED
:100EB000FFF7D0FE33490868334900EA010109B958
:100EC000002055E000F0004109B1012050E000F0A1
:100ED000804109B101204BE000F0005109B101202F
:100EE00046E000F0805109B1012041E000F00061CE
:100EF00009B101203CE000F0806109B1012037E038
:100F000000F0807109B1012032E000F4000109B164
:100F100001202DE000F4800109B1012028E000F457
:100F2000001109B1012023E000F4801109B1012072
:100F30001EE000F4002109B1012019E000F4802135
:100F400009B1012014E000F4003109B101200FE0E3
:100F500000F4803109B101200AE000F4804109B1B8
:100F6000012005E000F0080109B1012000E00020A7
:100F7000DDF800E002B0704710270000342C01407B
:100F8000FF050000142C014008E0FFFD81B002685D
:100F90000D490A600D490A680D4902EA0103011D65
:100FA0000A6800F2080109680A4300F20C010968A6
:100FB0000A4300F21001096842EA010143EA010212
:100FC00002490A6001B07047082C01400C2C014016
:100FD00000F8FFFF81B0034A116860F30821116037
:100FE00001B07047042C014083B0CDF800E05FFAF7
:100FF00080F80DF1040B0BF1080ADFF838C111F08D
:1010000075FE4D49096801F0007109B101208CE0BD
:1010100001AA4A49096888B21146FFF793FCC1B298
:1010200008B1C8B281E0B8F1010F3FD101A9091D93
:10103000096801F48021002936D0404909680A0472
:101040003F490A6037223F490A604FF040023E495B
:101050000A604FF000023D490A604FF480623C494B
:101060000A603748FFF792FF3720FFF7F3FEC1B25F
:1010700008B1C8B259E0022231490A60062231495A
:101080000A604FF0400230490A604FF000022F49D9
:101090000A604FF480622E490A602948FFF776FF04
:1010A0000620FFF7D7FE40E001203EE001A9091D20
:1010B000096801F48031002936D0204909680A0402
:1010C0001F490A6037221F490A604FF040021E493B
:1010D0000A604FF000021D490A604FF480621C490B
:1010E0000A601748FFF752FF3720FFF7B3FEC1B27F
:1010F00008B1C8B219E0002211490A60062211495C
:101100000A604FF0400210490A604FF000020F4998
:101110000A604FF480620E490A600948FFF736FF03
:101120000620FFF797FE00E00120DDF800E003B0A5
:10113000704700BF68EC0108142C0140AC16002079
:10114000BC2C0020C02C0020C42C0020C82C002067
:10115000CC2C002082B0CDF800E00023264C274A9A
:101160001568019525460C46C1B2019800F045026C
:101170002AB9002D03D96D1E204A1068F6E71DB16B
:1011800000F0040202B906E001224FF00400FFF76C
:1011900061FDD0B22CE000F0010232B101224FF02B
:1011A0000100FFF757FDD0B222E0FFF717FD88429C
:1011B00001D001201CE01248FFF74CFD114A1068D5
:1011C00000F4604222B9020C92B22280D8B20FE041
:1011D00000F400520AB101200AE000F480420AB192
:1011E000012005E000F400420AB1012000E0D8B27D
:1011F000DDF800E002B0704710270000342C0140F9
:10120000FF050000142C014081B0CDF800E00A4A2F
:10121000002A06D94FF08000FFF776FB08B9521E6E
:10122000F6E70AB9012003E00448FFF713FD0020A8
:10123000DDF800E001B0704710270000FF05000056
:1012400085B0CDF800E0029000F0B8FDFF2200214B
:10125000092000F069FD18B100F042FF012026E0EE
:10126000FF20154C2468A047FE2800D0F8E7002393
:101270009AB2102A10D2029989180491ADF804206C
:10128000FF200D4C2468A047BDF804200499087085
:10129000511C8BB29AB2ECE7FF20074C2468A047A0
:1012A000FF20054C2468A04700F01AFF0020DDF85D
:1012B00000E005B0704700BFB82C002085B0CDF825
:1012C00000E0029000F07AFDFF2200210A2000F0E9
:1012D0002BFD18B100F004FF012026E0FF20154C83
:1012E0002468A047FE2800D0F8E700239AB2102A0D
:1012F00010D2029989180491ADF80420FF200D4CFA
:101300002468A047BDF8042004990870511C8BB2D2
:101310009AB2ECE7FF20074C2468A047FF20054C59
:101320002468A04700F0DCFE0020DDF800E005B0F6
:10133000704700BFB82C002081B0CDF800E0044613
:10134000CDB2221D126802F47062B2F5E06F04D8CB
:10135000E9B22046FFF7E4FA05E0E9B22046FFF7DC
:101360008DFC81B288B2DDF800E001B07047FFFF6C
:1013700081B0CDF800E004460C492046FFF70CFC94
:10138000211D08460A49FFF707FC04F20801084638
:101390000849FFF701FC04F20C0108460649FFF773
:1013A000FBFB0020DDF800E001B07047FC2C0020C2
:1013B000002D0020042D0020082D002083B0CDF842
:1013C00000E00290FC201D4C2468A047002290B24F
:1013D00040F2FF1188420FD8029909180978CCB25F
:1013E000ADF80400A0B2154C2468A047BDF8040075
:1013F000411C8AB290B2EBE7FF20104C2468A04752
:10140000FF200E4C2468A047FF200C4C2468A04706
:1014100000F01F0189B2052903D000F061FE02200F
:1014200008E0FF20054C2468A047B0F1FF0F00D072
:10143000F7E70020DDF800E003B07047B82C00208B
:1014400085B0CDF800E00290FFF796FB00239AB23A
:10145000B2F5007F10D2029989180491ADF80420EA
:10146000FF200C4C2468A047BDF8042004990870A4
:10147000511C8BB29AB2EBE7FF20064C2468A047C0
:10148000FF20044C2468A0470020DDF800E005B0F0
:10149000704700BFB82C002081B0CDF800E00446B2
:1014A0004F4A50490A6000224F490A604FF000023B
:1014B0004E490A604FF000024D490A604FF00002A9
:1014C0004C490A604FF000024B490A604548FFF75B
:1014D000E7F90020FEF778FE4849096801F000713D
:1014E00009B1012077E046490968022902D1204666
:1014F000044600E0640240F2002242490A601022E1
:1015000041490A604FF0400240490A604FF0000232
:101510003F490A604FF480623E490A603948FFF74C
:1015200035FD1020FFF796FC08B1012053E03A4941
:1015300009680A0433490A600D2233490A604FF0F2
:10154000400232490A604FF0000231490A604FF40C
:10155000806230490A602B48FFF718FD0D20FFF725
:1015600079FC08B1012036E026490C601922264991
:101570000A604FF0400225490A604FF000022449FA
:101580000A604FF4806223490A601E48FFF7FEFCA0
:101590001920FFF75FFC08B101201CE0104A114937
:1015A0000A606FF07E4210490A6090220F490A607B
:1015B0004FF000020E490A604FF000020D490A6028
:1015C0004FF001020C490A600648FFF769F9002252
:1015D00012490A600020DDF800E001B0704700BF4A
:1015E000FFFF0F00D02C0020D42C0020D82C00208E
:1015F000DC2C0020E02C0020E42C0020142C0140E6
:10160000B8160020BC2C0020C02C0020C42C0020C8
:10161000C82C0020CC2C0020AC160020E82C002088
:1016200081B0CDF800E0034C2468A047DDF800E06D
:1016300001B07047C016002081B0CDF800E0FFF780
:10164000D5FA10B1FF2040B201E0002040B2DDF831
:1016500000E001B07047FFFF81B0CDF800E00F4817
:10166000007820B10D480078022800D002E0002068
:1016700040B20EE0FFF7C6FA30B1FF2149B2084888
:101680000170FF2040B204E00021044801700020F6
:1016900040B2DDF800E001B0704700BF002C002030
:1016A0007228002081B0CDF800E00446012000F04F
:1016B0006FFF012000F062FF0120FFF71BF90120FE
:1016C00000F070FF404A41490A60002240490A6028
:1016D0004FF000023F490A604FF000023E490A60A5
:1016E0004FF000023D490A604FF000023C490A6099
:1016F0003648FFF7D5F80020FEF766FD394909683E
:1017000001F0007109B101205AE037490968022946
:1017100002D12046044600E0640240F20022334930
:101720000A60102232490A604FF0400231490A60D3
:101730004FF0000230490A604FF480622F490A607E
:101740002A48FFF723FC1020FFF784FB08B1012093
:1017500036E026490C60122225490A604FF040020B
:1017600024490A604FF0000223490A604FF4806266
:1017700022490A601D48FFF709FC1220FFF76AFBA7
:1017800008B101201CE0002000F0F8FE0E4A0F49CD
:101790000A606FF07E420E490A6090220D490A608D
:1017A0004FF002020C490A604FF000020B490A6038
:1017B0004FF001020A490A600448FFF771F800205F
:1017C000DDF800E001B07047FFFF0F00D02C0020D3
:1017D000D42C0020D82C0020DC2C0020E02C002071
:1017E000E42C0020142C0140B8160020BC2C002052
:1017F000C02C0020C42C0020C82C0020CC2C0020A1
:1018000081B0CDF800E0024600F0D8FA0E49097820
:10181000042901D1104600E05002FF2201461920A0
:1018200000F082FA18B100F05BFC012008E0FF2014
:10183000064C2468A047FF20044C2468A0470020E1
:10184000DDF800E001B0704797160020B82C0020AA
:1018500081B0CDF800E0024600F0B0FA0A490978FC
:10186000042901D1104600E05002FF220146122057
:1018700000F05AFA18B100F033FC012000E000201B
:10188000DDF800E001B070479716002081B0CDF878
:1018900000E004460C492046FFF77EF9211D08466A
:1018A0000A49FFF779F904F2080108460849FFF7E9
:1018B00073F904F20C0108460649FFF76DF90020A0
:1018C000DDF800E001B07047EC2C0020F02C002087
:1018D000F42C0020F82C002001480068704700BF5D
:1018E0008C28002085B0CDF800E0039101460492D9
:1018F0002F4B1B68029308462E4B1B68994204D35A
:101900002D4B1B68984200D206E0F42464B22B4BA6
:101910001C70FF2040B246E00025E9B2284B1C783D
:10192000039BE340994226D28DF8041003F0FEFD9C
:101930009DF8041002466FF07043984206D1F124DE
:1019400064B21E4B1C70FF2040B22CE0194B1B6888
:101950009A4204D3184B1B689A4200D206E0F42442
:1019600064B2164B1C70FF2040B21CE04B1CDDB271
:101970001046E9B2D2E7134B1B685C1E039B234061
:101980001C4603F005FB104B1B7824FA03F3C41824
:10199000049B1C60029800F07BFD10B1FF2040B258
:1019A00001E0002040B2DDF800E005B0704700BF64
:1019B000D0280020B4280020CC2800207228002045
:1019C0007D2C0020D42A00200A2C002082B0CDF8E3
:1019D00000E00126044600230025012000F0CEFD92
:1019E0003A490A683A4902EA010100292FD13949E6
:1019F0008D422FD84FF40040FEF786FFF8B1012E3C
:101A000004D1002000F0BAFD002200E0F2B200256F
:101A1000082D0ED2A90061180191FEF739FF019936
:101A20000860591C0B46802901D3184602E06D1C42
:101A3000EEE71846203400250346D6B200E06D1CC0
:101A4000802B00D300E0CBE71A462B4601E01A4674
:101A50002B4601E01A462B464FF00800FEF754FFD4
:101A600028B14FF00800FFF7F5F8012029E04FF00A
:101A70000200FEF749FF28B14FF00200FFF7EAF835
:101A800001201EE04FF02000FEF73EFF28B14FF08E
:101A90002000FFF7DFF8012013E04FF40070FEF79D
:101AA00033FF28B14FF40070FFF7D4F8012008E0AD
:101AB00008498B4202D8802A00D301E0012000E0CF
:101AC0000020DDF800E002B0704700BF342C014078
:101AD0002A030000FFFF1F0084B0CDF800E04FF0A4
:101AE0000006054640F200225D490A60002102918D
:101AF000002103915B490A685B4902EA0101002960
:101B000040F06E80039A59498A4200F269804FF48E
:101B10008040FEF7F9FE002800F05A80504909681D
:101B2000891B20291BD3002733463A46082A0ED2A8
:101B30009100691809680846FEF750FB0299491C94
:101B40000291802900D302E0571C3A46EEE705F2E5
:101B50002001084603F220010E4605462FE04049C9
:101B60000968891B01F0030129B93D490968891BEE
:101B70008908019105E03A490968891B8908491CCF
:101B8000019101980027A846344603463A469A42F6
:101B900013D2D8F800100846FEF720FB0299491C22
:101BA0000291802900D308E0511C0F4608F104057A
:101BB000261DA84634463A46E9E726464546029998
:101BC000802900D30CE0002103912946304604E02F
:101BD0000399491C03912946304606460D4689E77C
:101BE0004FF00800FEF790FE28B14FF00800FFF715
:101BF00031F8012030E04FF00200FEF785FE28B1F9
:101C00004FF00200FFF726F8012025E04FF010000A
:101C1000FEF77AFE28B14FF01000FFF71BF8012005
:101C20001AE04FF40070FEF76FFE28B14FF4007019
:101C3000FFF710F801200FE0039A0C498A4203D8FD
:101C40000299802900D301E0012005E0084A1168CB
:101C500001F5007111600020DDF800E004B070476C
:101C6000BC160020342C01401A030000FFFF1F00A7
:101C7000E82C002081B0CDF800E0C2B2D0B2FEF76F
:101C8000D1FF68B9D0B2FEF7D9FF48B9D0B2FEF79C
:101C9000E9FF28B9D0B2FEF78DFF08B9002100E0B6
:101CA0000121C8B2DDF800E001B0704781B0CDF885
:101CB00000E0C1B20348FFF73FFBDDF800E001B0F0
:101CC000704700BF0038004081B000F21C010A6874
:101CD000C2F3801188B201B07047FFFF81B000F2FB
:101CE0001C010A68C2F3401101B9F8E700F22401AF
:101CF000096888B201B0704781B0CDF800E0C1B288
:101D00000348FFF719FBDDF800E001B0704700BFA2
:101D10000030014081B000F21C010A68C2F340119A
:101D200088B201B07047FFFF84B0CDF800E00291A7
:101D30008DF80C2000F24004A0B21F4C2468A0478C
:101D400002ABDB1C1B78DCB2A0B21B4C2468A047A2
:101D500002AB9B1C1B78DCB2A0B2174C2468A047D6
:101D600002AB5B1C1B78DCB2A0B2134C2468A0470A
:101D700002AB1B78DCB2A0B20F4C2468A0479DF8E0
:101D80000C000D4C2468A0470021ADF80410FF2082
:101D9000094C2468A047BDF8041082B24B1C99B2CC
:101DA00000F080039BB213B1642900D2EDE790B23A
:101DB000DDF800E004B07047B82C002081B0034982
:101DC00008686FF30C30086001B07047140C0240D3
:101DD00084B0CDF800E08DF80C000021ADF80410BF
:101DE000BDF8042042F210718A4280F077809DF89D
:101DF0000C1099B9FFF7E2FFFF2200210120FFF745
:101E000093FFADF8060000F06BF9BDF8061021B99C
:101E1000002235490A70002061E059E0FFF7CEFF4B
:101E2000FF2200213720FFF77FFFADF8060000F00A
:101E300057F9BDF80610012949D1FFF7BFFFFF226E
:101E40004FF080412920FFF76FFFADF8060000F04A
:101E500047F9BDF80610002938D19DF80C10022969
:101E60002FD1FFF7ABFFFF2200213A20FFF75CFFE5
:101E7000ADF80600FF201D4C2468A047ADF808000F
:101E8000FF201A4C2468A047FF20184C2468A04764
:101E9000FF20164C2468A04700F022F9BDF8061078
:101EA00071B9BDF8081001F0400189B219B10422DE
:101EB0000D490A7002E003220B490A7000200EE06F
:101EC00004E0012208490A70002008E000E005E073
:101ED000BDF80410491CADF8041081E70120DDF8BD
:101EE00000E004B0704700BF97160020B82C002017
:101EF00082B0CDF800E04FF0000700240025002656
:101F00000320FEF703FF0120FFF764F800216B4870
:101F1000016000216A4801604FF0000169480160DA
:101F20004FF00001684801604FF48061674801602C
:101F30006248FFF72BF8FFF767F908B10120B9E015
:101F40004FF4D5715D4801604FF008015C480160B5
:101F50004FF040015B4801604FF000015A480160BA
:101F60004FF48061594801605448FFF70FF8FEF7BD
:101F700043FF30B94FF00101554801604FF08047F1
:101F800017E000214D48016037214D4801604FF0B6
:101F900040014C4801604FF000014B4801604FF494
:101FA00080614A4801604548FEF7F0FF3720FEF7A0
:101FB00051FF0021414801603721414801604FF045
:101FC0004001404801604FF000013F4801604FF47C
:101FD00080613E4801603948FEF7D8FF3720FEF7A0
:101FE00039FFC2B2002840F06480E0B23C4631467E
:101FF000002840F050803748854280F04C80002116
:102000002E48016037212E4801604FF040012D48D5
:1020100001604FF000012C4801604FF480612B48B3
:1020200001602648FEF7B2FF3720FEF713FFC1B26A
:1020300008B1C8B23EE0284840EA04011F480160E8
:1020400029211F4801604FF040011E4801604FF0F8
:1020500000011D4801604FF480611C480160174871
:10206000FEF794FFFEF79CFEC1B208B1C8B221E0B2
:102070001A480268D00F012802D1012040B201E0C5
:10208000002040B2C3B26D1C8DF80410D8B21146C6
:102090009DF80420ACE70F48854201D3012009E0F8
:1020A00001F0804018B14FF0020109480160D0B240
:1020B00000E0D0B2DDF800E002B07047BC2C002098
:1020C000C02C0020C42C0020C82C0020CC2C0020C8
:1020D000B8160020FFFF000000001080142C014003
:1020E00081B0CDF800E00649086840F480500860EF
:1020F000FF20044C2468A047DDF800E001B07047E1
:10210000140C0240B82C002081B0CDF800E0C1B220
:102110000348FFF711F9DDF800E001B0704700BF98
:102120000034014081B0CDF800E0C1B20348FFF7B0
:1021300003F9DDF800E001B0704700BF003C00404B
:1021400081B0CDF800E0C1B20348FFF7F5F8DDF843
:1021500000E001B0704700BF0054014081B0CDF8ED
:1021600000E0C1B20348FFF7E7F8DDF800E001B096
:10217000704700BF0050014085B0CDF800E0064632
:102180000F4601AA314610460B2212B203F01EF987
:10219000002435463B460B2C26D2002601AA1219F4
:1021A0001278D0B2FFF766FD012801D1012000E0CE
:1021B000F0B201AA12191278202A01D10120FFE7FA
:1021C00001AA121912782E2A01D10120FFE740B985
:1021D00000221A70C4235BB2384A1370FF2040B249
:1021E00068E0641CE4B2D6E7002700261C46082EEF
:1021F00022D201AA92191278202A17D005F20C02D5
:10220000127802F00802D2B252B1E219049201AA85
:1022100092191278D0B2FEF76DFD049A107004E0A6
:10222000E31901AA921912781A7000E004E07F1CE9
:10223000FFB2761CF6B2DAE701AA08321278202A39
:1022400005D1E31900221A70002040B232E0E319F0
:102250002E221A707E1CF6B208202F46C5B20B2D16
:1022600023D201AA52191278D0B2FFF703FD00B9A8
:102270001BE007F20C02127802F01002D2B252B147
:10228000A219049201AA52191278D0B2FEF732FDB7
:10229000049A107004E0A31901AA521912781A7056
:1022A000761CF6B26D1CEDB2D9E7A31900221A70A4
:1022B000002040B2DDF800E005B070477228002031
:1022C00082B0CDF800E0034619460191FFF704FB08
:1022D00040F2E83100FB01F201990A6017490968F0
:1022E00001F0F0010A09164989180878C0B21A1DD0
:1022F0001968C14011601149096801F4E0518A0A66
:102300000F4989180878C0B203F20802191D09683C
:10231000C14011600949096801F460414A0B08494C
:1023200089180978C8B203F20C02191D0968C14066
:102330001160DDF800E002B0704700BF08380240CD
:10234000E516002083B0CDF800E001920A4601991D
:10235000019102920A460299FFF7C4FA019910B15D
:10236000FF2040B209E00B68184600F091F810B168
:10237000FF2040B201E0002040B2DDF800E003B0F1
:102380007047FFFF81B0014640F2000340F20000B9
:1023900082B20846C118097821B15B1C9BB2521C5D
:1023A00092B2F7E790B201B07047FFFF81B0421CD4
:1023B00012780A704B1CC21C12781A708B1C421DBA
:1023C00012781A70CB1CC21D12781A700B1D00F205
:1023D000090212781A704B1D00F20E0212781A7060
:1023E0008B1D00F2100212781A70CB1D00F212023F
:1023F00012781A7001F2080300F2140212781A70AF
:1024000001F2090300F2160212781A7001F20A03AF
:1024100000F2180212781A7001F20B0300F21C028B
:1024200012781A7001F20C0300F21E0212781A7070
:10243000002040B201B0704781B0002300240B2B74
:1024400012D204F00101C9B2CA0192B204F0FE0135
:10245000C9B24908C9B20A4392B2C11809785118E1
:10246000CCB25B1CDBB2EAE7E0B201B07047FFFF21
:1024700081B00178C8B201B07047FFFF81B0411C44
:1024800009780A0292B20178511888B201B07047F7
:1024900082B0CDF800E002461F490978032912D125
:1024A0000192FFF7D9F8019A30B1FF2252B21B49CD
:1024B0000A70FF2040B22BE019490968914202D10D
:1024C000002040B224E014490978012906D1FF22F6
:1024D00052B212490A70FF2040B219E0104909684F
:1024E0008A4213D001920F491046FFF7A5F8019ACE
:1024F00050B14FF0FF320A490A60FF2252B2074939
:102500000A70FF2040B203E005490A60002040B293
:10251000DDF800E002B07047002C00207228002097
:10252000D0280020D428002081B0CDF800E0034C52
:102530002468A047DDF800E001B07047B016002025
:1025400081B0CDF800E0034C2468A047DDF800E03E
:1025500001B07047B416002081B0C11C09780A028E
:10256000811C097851180A02411C097851180A0285
:1025700001785118084601B07047FFFF81B0034A47
:10258000116860F34921116001B070472C2C0140A3
:1025900081B0034A116860F30821116001B07047EF
:1025A0002C2C014081B0034A116860F3CB211160EB
:1025B00001B070472C2C014082B0CDF800E040F211
:1025C0000100ADF80400FEF7A9FB08B9012094E072
:1025D0004C48006804282CD000214B48016002219F
:1025E0004A4801604FF0C001494801604FF00001C6
:1025F000484801604FF48061474801604248FEF757
:10260000C5FCFEF795FB012801D1012075E0434888
:1026100001684348016043480168434801604348FA
:102620000168434801604348006840F001014248A6
:1026300001603448006860B132480068012808D061
:1026400030480068062804D02E480068022800D0D0
:102650001CE000212C48016003212C4801604FF050
:1026600040012B4801604FF000012A4801604FF4FF
:102670008061294801602448FEF788FC01A80146D2
:102680000320FEF767FD08B1012036E01D48006811
:10269000042831D0BDF8041028480160BDF80400BA
:1026A0000104194801600921184801604FF0C00178
:1026B000174801604FF00001164801604FF4806137
:1026C000154801601048FEF761FCFEF731FB08B1C8
:1026D000012012E0114801681948016011480168A1
:1026E00018480160114801681748016011480068E6
:1026F00040F00101154801600020DDF800E002B063
:10270000704700BFB8160020BC2C0020C02C002051
:10271000C42C0020C82C0020CC2C0020142C0140FC
:10272000FC2C0020182C0140002D00201C2C014006
:10273000042D0020202C0140082D0020AC16002084
:10274000EC2C0020F02C0020F42C0020F82C002091
:1027500081B0CDF800E00D49086007220C490A60FD
:102760004FF040020B490A604FF000020A490A602C
:102770004FF4806209490A600448FEF707FC07200D
:10278000FEF768FBDDF800E001B07047BC2C0020CC
:10279000C02C0020C42C0020C82C0020CC2C0020F1
:1027A00081B0CDF800E019490968032906D1B0F5D8
:1027B000805F01D1002024E0012022E01349096854
:1027C00041B112490968012904D010490968022958
:1027D00000D015E0B0F5805F01D1012011E0B0F527
:1027E000006F07D10120FEF7FFFB002801D0012078
:1027F00007E005E00020FEF7F7FB08B1012000E04C
:102800000020DDF800E001B0704700BFB8160020DE
:1028100081B0CDF800E0FEF703FF10B1FF2040B219
:1028200001E0002040B2DDF800E001B07047FFFF9A
:1028300081B00022082A09D2064989180978814204
:1028400001D1012003E0521CD2B2F3E7002001B015
:10285000704700BF88EC010881B093B20A46014678
:1028600040F2000440F200001FFA80F810469AB2CD
:10287000EAB10B191D78EEB2631C9FB200EB08039E
:102880001C785FFA84F908F101081FFA88F8A5425C
:1028900007D04E4502D2FF2040B201E0012040B2F5
:1028A00007E006B903E0521E92B2BCB2E0E7002096
:1028B00040B201B07047FFFF81B0CDF800E00446A0
:1028C0000025574909680A0456490A600D225649ED
:1028D0000A604FF0400255490A604FF00002544927
:1028E0000A604FF4806253490A604E48FEF74EFB7F
:1028F000514908682346EAB200F0450111B94E4932
:102900000868F9E700F0040129B14FF00400FEF770
:10291000A1F901207FE000F0010129B14FF0010091
:10292000FEF798F9012076E0FEF758F9C1B20D29BB
:1029300001D001206FE04148FEF78CF9404908685A
:10294000410A01F00F01C9B219703E4900EA0101C4
:1029500009B900205FE000F0004109B101205AE010
:1029600000F0804109B1012055E000F0005109B1AB
:10297000012050E000F0805109B101204BE000F04F
:10298000006109B1012046E000F0806109B1012039
:1029900041E000F0807109B101203CE000F4000149
:1029A00009B1012037E000F4800109B1012032E0D3
:1029B00000F4001109B101202DE000F4801109B1EB
:1029C000012028E000F4002109B1012023E000F4F7
:1029D000802109B101201EE000F4003109B101207D
:1029E00019E000F4803109B1012014E000F4004145
:1029F00009B101200FE000F4804109B101200AE093
:102A000000F4005109B1012005E000F0080109B10E
:102A1000012000E0D0B2DDF800E001B0704700BF57
:102A2000AC160020BC2C0020C02C0020C42C0020A0
:102A3000C82C0020CC2C0020342C0140FF050000C5
:102A4000142C014008E0FFFD82B0CDF800E0804684
:102A50009946029C4FF000004F4CA04506D14F4CC8
:102A600020684F4C25684F4C25601DE04E4CA0451A
:102A700006D14E4C20684E4C25684A4C256013E028
:102A80004C4CA04506D14C4C20684C4C2568454C1C
:102A9000256009E04A4CA04506D14A4C20684A4CC2
:102AA0002568404C2560FFE7484C20604FF40054F7
:102AB00001924FF000735FFA89F2404610B4FEF7BE
:102AC000EFF801B0019A414613464A46002A24D93C
:102AD0003E4C20680193034608461146019A00F2D5
:102AE0001804246804F002046CB9384C24684CB112
:102AF00033B904202B4C2468A0474FF6FF7046E002
:102B00005B1EFFE7EBE700F2280514782C60541CED
:102B100023464C1E22460146D8E72C4C20680190E3
:102B20000846019900F21804246804F001046CB905
:102B3000264C24684CB131B904201A4C2468A047B3
:102B40004FF6FF7023E0491EFFE7EBE71F4C2168BB
:102B500000F21804246804F020046CB91B4C2468AB
:102B60004CB131B904200F4C2468A0474FF6FF70D8
:102B70000DE0491EFFE7EBE700F2180635686FF03D
:102B8000200405EA04043460FEF7A8F80020DDF80C
:102B900000E002B0704700BF0054004098160020CB
:102BA0009C2C0020982C0020005800409C160020EF
:102BB000A02C0020005C0040A0160020A42C0020C7
:102BC00000600040A4160020A82C0020A8160020B9
:102BD00082B0CDF800E0804692469946029C4FF0C4
:102BE0000000404CA04506D13F4C20683F4C256872
:102BF0003F4C25601DE03F4CA04506D13E4C20686F
:102C00003E4C25683A4C256013E03D4CA04506D16A
:102C10003C4C20683C4C2568354C256009E03B4C19
:102C2000A04506D13A4C20683A4C2568304C2560C6
:102C3000FFE7394C20604FF40054384B5FFA89F2BB
:102C4000404610B4FEF72CF801B00022434651462E
:102C50004D46AA4222D2304C2068019505461846BE
:102C60001346019A00F21804246804F004045CB9C5
:102C7000294C24683CB125B903201D4C2468A04789
:102C80002CE06D1EFFE7EDE7CD1800F22404246868
:102C90002C705B1C15461A460346DAE71E4C20686A
:102CA0000146184600F21804246804F020045CB9B8
:102CB000194C24683CB121B903200D4C2468A0476D
:102CC0000CE0491EFFE7EDE700F2180635686FF0EB
:102CD000200405EA04043460FEF700F8DDF800E0A3
:102CE00002B0704700540040981600209C2C002031
:102CF000982C0020005800409C160020A02C00209A
:102D0000005C0040A0160020A42C002000600040C1
:102D1000A4160020A82C0020A81600200004000201
:102D200081B000F218010A68C2F3402109B1012004
:102D300000E0002001B0704702480168C1F3803014
:102D4000704700BF100C024002480168C1F38000C8
:102D5000704700BF1010024002480168C1F38010A4
:102D6000704700BF1000024002480168C1F34010E4
:102D7000704700BF1004024002480168C1F3C00060
:102D8000704700BF1000024002480168C1F3000014
:102D9000704700BF1014024002480168C1F30000F0
:102DA000704700BF1008024002480168C1F340109C
:102DB000704700BF100C024002480168C1F3400098
:102DC000704700BF1014024002480168C1F3401070
:102DD000704700BF1000024002480168C1F3C00004
:102DE000704700BF1000024002480168C1F3401064
:102DF000704700BF100C024002480168C1F3403028
:102E0000704700BF100C024002480168C1F3400047
:102E1000704700BF1010024002480168C1F3400033
:102E2000704700BF1014024002480168C1F300302F
:102E3000704700BF1004024002480168C1F3C0306F
:102E4000704700BF1000024002480168C1F3000053
:102E5000704700BF1014024002480168C1F34000EF
:102E6000704700BF1004024002480168C1F34010DF
:102E7000704700BF1010024081B0ADF8002002463C
:102E8000BDF9000004B2431E18B25CB114780B788F
:102E90009C4204D014780B78E31A18B204E0521C58
:102EA000491CEFE7002000B201B0704782B0CDF8B6
:102EB00000E002461A49097803290BD10192FEF776
:102EC000CBFB019A30B1FF2252B216490A70FF20A3
:102ED00040B220E012490978012906D1FE2252B2FF
:102EE00010490A70FF2040B215E001920E491046C9
:102EF000FFF78EFC019A50B14FF0FF320B490A6088
:102F0000FE2252B207490A70FF2040B203E007498F
:102F10000A60002040B2DDF800E002B0704700BF58
:102F2000002C002072280020D4280020D028002067
:102F300081B07A2808D8612807D34FF6DF7109B22B
:102F400000EA0101C8B2FFE7FFE701B07047FFFFE9
:102F500081B0CDF800E0C3B2D8B2FEF78BFE28B93D
:102F6000D8B2FFF765FC08B9002100E00121C8B222
:102F7000DDF800E001B0704781B0CDF800E008B4A2
:102F800013460A46C1B20448FFF722FE01B0DDF83D
:102F900000E001B0704700BF0060004081B0CDF894
:102FA00000E008B413460A46C1B20448FFF710FE19
:102FB00001B0DDF800E001B0704700BF00540040F0
:102FC00081B0CDF800E008B413460A46C1B2044807
:102FD000FFF73AFD01B0DDF800E001B0704700BF37
:102FE0000060004081B0CDF800E008B413460A4606
:102FF000C1B20448FFF7ECFD01B0DDF800E001B01C
:10300000704700BF005C004081B0CDF800E008B41C
:1030100013460A46C1B20448FFF7DAFD01B0DDF8F5
:1030200000E001B0704700BF00580040024801684E
:10303000C1F30000704700BF10140240024801684D
:10304000C1F38010704700BF1000024002480168C1
:10305000C1F34010704700BF1004024002480168ED
:10306000C1F38010704700BF101002400248016891
:10307000C1F34010704700BF1000024002480168D1
:10308000C1F3C030704700BF100C02400248016815
:10309000C1F34010704700BF100C024002480168A5
:1030A000C1F34000704700BF10140240024801689D
:1030B000C1F3C000704700BF101002400248016811
:1030C000C1F3C000704700BF100002400248016811
:1030D000C1F34010704700BF1004024092B0CDF819
:1030E00000E00F90109111920EAB1A4611991098B2
:1030F000FFF728F910B1FF2040B2C6E0654B1B680E
:103100005C1E119B23405C01634B19190124E0B242
:10311000082808D20B181B787E2B00D103E0431C33
:10312000DCB2E0B2F4E7082804D108460F99FFF7B3
:1031300023F8AAE00DF11603202212B2184602F07D
:1031400045F90EAC119B5B1E11932246194610984F
:10315000FFF7F8F810B1FF2040B296E04D4B1B6826
:103160005C1E119B23405C014B4B1B191D460B330E
:103170001B7803F03F03DBB20F2B06D00DF11603D3
:103180000F991846FEF7F8FF7FE00DF11603184679
:10319000FFF752F98DF8080040F201082F4607F2B8
:1031A0000B031B7803F03F03DBB20F2B06D0C024C8
:1031B00064B23A4B1C70FF2040B266E007F20D0388
:1031C0001C789DF808309C4206D0C12464B2334B71
:1031D0001C70FF2040B258E03B7803F01F03DBB2C5
:1031E000434506D0C22464B22C4B1C70FF2040B271
:1031F0004BE00DF1090319463846FFF7D7F80020D8
:10320000A8F1010424B20D231BB263431BB2C418FE
:1032100024B20F9B1C190DF109031B181B78237096
:10322000431CDBB2DEB20D2B06D20DF109039B1954
:103230001B780BB1F0B2E3E73B7803F04003DBB25D
:1032400013B1002040B220E008F10103D9B20EAC66
:10325000119B5B1E11938DF804102246194610989D
:10326000FFF770F89DF8041010B1FF2040B20CE099
:10327000084B1B685C1E119B23405C01064B1B190D
:103280001C4627465FFA81F889E7DDF800E012B0B6
:10329000704700BFF02B0020D428002072280020A7
:1032A0008BB0CDF800E09AB2BDF82C300C9E06AC85
:1032B000ADF80430ADF80820039104902046FEF7E5
:1032C000FFFF04980399BDF80820BDF804307F4C37
:1032D000A04213D17E4D2C6844F010042C607D4D2B
:1032E0007D4C25607D4D7E4C25607E4D7E4C25605D
:1032F0007E4D7F4C2560099C05949FE07D4CA0424B
:1033000013D17D4D2C6844F400342C607B4D724CFD
:1033100025607B4D724C25607A4D734C25607A4D4B
:10332000734C2560089C059488E0784CA04213D12A
:10333000714D2C6844F480242C60754D664C2560DA
:10334000744D674C2560744D674C2560734D684C17
:103350002560089C059471E0714CA04213D1664D24
:103360002C6844F400242C606E4D5B4C25606E4D3F
:103370005B4C25606D4D5C4C25606D4D5C4C256053
:10338000089C05945AE06B4CA04213D15A4D2C680E
:1033900044F480142C60684D4F4C2560674D504CB0
:1033A0002560674D504C2560664D514C2560089C4A
:1033B000059443E0644CA04213D1454D2C6844F081
:1033C00020042C60614D444C2560614D444C2560C7
:1033D000604D454C2560604D454C2560099C059429
:1033E0002CE05E4CA04213D15D4D2C6844F080442B
:1033F0002C605C4D384C25605B4D394C25605B4D35
:10340000394C25605A4D3A4C2560089C059415E0CE
:10341000584CA04212D1524D2C6844F000442C600C
:10342000554D2D4C2560554D2D4C2560544D2E4C41
:103430002560544D2E4C2560089C0594ADF8043051
:10344000ADF8082003910490304602F085FD049801
:103450000399BDF80820BDF80430051D00242C6038
:10346000051D2C681C432C60002404601AB142F432
:10347000806292B2FFE7046814430460046844F079
:103480000D04046000F2080500242C60059D192439
:1034900065438C00B5FBF4F76424B7FBF4F4260114
:1034A000350964246C433C1B240104F23205642476
:1034B000B5FBF4F404F00F0446EA040400F20C0532
:1034C000A4B22C60DDF800E00BB0704700100140A2
:1034D0004438024055C00008902D00209943000850
:1034E000942D0020D93E0008982D0020C13E0008F0
:1034F0009C2D002000440040403802406DB600087A
:10350000413C0008293C0008113C000800480040EC
:1035100049DF0008593C0008893C0008E9400008E0
:10352000004C00402DDF00083141000849410008EF
:10353000614100080050004011DF000819410008F7
:10354000D1400008014100080014014065DF000877
:10355000D9410008F1410008094200080078004004
:103560004038024005E00008C141000879410008E8
:1035700091410008007C0040E9DF0008A9410008F3
:10358000B9400008713C000882B0CDF800E040F27C
:103590000004ADF80440054C2468A047BDF9044080
:1035A000044320B2DDF800E002B070477428002028
:1035B00082B0CDF800E040F20004ADF80440064CC3
:1035C0002468A047BDF9041041EA000000B2DDF80C
:1035D00000E002B0704700BF4428002081B0002303
:1035E0000360CB009BB242EA030304689BB244EA47
:1035F00003030360051D13141C462B6864F3820348
:103600002B60051D2C684FF2FF0304EA03032B60B7
:10361000051D131403F470642B6823432B601316E9
:1036200003F00F03072B06DC051D01242B6864F350
:103630000C332B6005E0051D00242B6864F30C336C
:103640002B6000F21C0500242B6864F38A232B6096
:1036500000F21C0500242B6864F3CB232B600124AB
:10366000036864F38613036001B0704781B00446B9
:1036700040F20000ADF8002082B20846BDF800100C
:1036800059B183181B782370237813B1521C92B25E
:10369000FFE7641C491E89B2F2E701B07047FFFFE3
:1036A00081B0CDF800E004462046FEF76BFEC5B2BF
:1036B000204604F02FFD0124EBB20D4909888C420D
:1036C00011D222010B4989180988994208D1220197
:1036D00008498918091D0968814201D1A0B203E097
:1036E000641CA4B2E9E70020DDF800E001B07047F7
:1036F000E0180020E418002081B0CDF800E000269A
:103700000A78D3B20546D8B20C4650B1C1B22846A9
:1037100006F0E0FA721CD2B2D6B2A2181278D0B279
:10372000F3E7DDF800E001B07047FFFF85B0CDF8AA
:1037300000E0824602918DF80C208DF81030504642
:10374000FEF720FE8DF81100C4B2102C02D910240F
:103750008DF81140012751469DF80C40A7423FD2F9
:10376000032404FB07F5029C641901912046FEF72F
:1037700009FE0199C2B240F2000C8A46F9B25FFA22
:103780008CFB5FFA82FC9DF81140A34523D20AEB23
:103790000B06032404FB01F5029C64198DF8041048
:1037A0005FFA8CF231462046FFF756F89DF8041078
:1037B00058B99DF810400CB9C8B212E09DF81040FD
:1037C000012C02D15FFA8BF00BE00BF10104E0B2A7
:1037D0005FFA80FBD7E74C1CE5B25146EFB2BBE77E
:1037E0000020DDF800E005B07047FFFF84B0CDF8A1
:1037F00000E0ADF80C2001900291BDF80C40BDF83E
:103800000C305B1EADF80C307CB1019B1B78DCB238
:10381000A0B2084C2468A047029B1870029B5B1C56
:103820000293019B5B1C0193E7E7DDF800E004B025
:10383000704700BF542800200A4A126802F0FF03B4
:103840009BB2020292B213439BB2064A1360064A2D
:10385000106800F47F4292B242EA01039BB2024A2E
:1038600013607047141002401418024081B0012305
:103870000022202A09DA40EA0301994201D150B21C
:1038800005E05B00521CD2B2F3E7FF2040B201B06A
:103890007047FFFF82B0CDF800E00020FEF7F8FD92
:1038A00010B1FF2040B269E0364B364C03F5FF7093
:1038B000FEF7E4FD4AF65521884206D0FC2149B2C4
:1038C00031480170FF2040B258E02078E92808D044
:1038D0002078EB2804D1A01C0078902800D100E0CB
:1038E00006E0FB2149B228480170FF2040B245E0C4
:1038F0000024012C40D20C2000FB04F12348401886
:10390000019003F5DF7120010818FEF7B1FD019960
:1039100008700C2000FB04F11C484018401C01906A
:1039200003F5DF7120010818001DFEF7A1FD0199C4
:1039300008700C2000FB04F114484018001D019091
:1039400003F5DF71200108180830FEF705FE019924
:1039500008600C2000FB04F10C484018083001906E
:1039600003F5DF71200108180C30FEF7F5FD019911
:103970000860641CE4B2BCE7002040B2DDF800E05F
:1039800002B07047D428002072280020942800201C
:1039900081B000F00F039BB2020992B20A21514399
:1039A00089B2591888B201B07047FFFF81B0CDF8D5
:1039B00000E0FEF7C5FD10B1FF2040B201E000209D
:1039C00040B2DDF800E001B07047FFFF81B0CDF8F4
:1039D00000E0FEF7A9FD002040B2DDF800E001B0F4
:1039E0007047FFFF82B0CDF800E040F20004ADF870
:1039F0000440044C2468A047BDF90400DDF800E051
:103A000002B0704778280020044A118801F47F41F1
:103A100089B240EA01011180704700BF14100240D2
:103A200040F2D207C0F200077F1EFDD100BF00BFE9
:103A300000BF00BF00BF704702480168C1F300101B
:103A4000704700BF1000024002480168C1F3400007
:103A5000704700BF1014024002480168C1F3000023
:103A6000704700BF1014024002480168C1F3C00053
:103A7000704700BF1000024002480168C1F34010C7
:103A8000704700BF100C024002480168C1F30000FB
:103A9000704700BF1004024002480168C1F34010A3
:103AA000704700BF1000024002480168C1F3801057
:103AB000704700BF1000024002480168C1F30010C7
:103AC000704700BF1010024002480168C1F3403047
:103AD000704700BF1008024081B0C40AA4B2E400DD
:103AE0000C704409A4B2A4001470C4001C7001B08E
:103AF0007047FFFF02480168C1F34010704700BFE4
:103B00001000024002480168C1F38010704700BFF6
:103B10001000024002480168C1F38000704700BFF6
:103B20001008024002480168C1F3C000704700BF9E
:103B30001008024002480168C1F34010704700BFFE
:103B40001004024002480168C1F30000704700BF42
:103B50001010024081B0C308DBB2DC02A4B28B08B3
:103B6000DBB25B019BB21C43A4B2D308DBB244EAD4
:103B7000030398B201B0704781B0811C0A880E49D6
:103B80000A8002880D490A80811D0A880C490A8032
:103B9000011D0A880B490A8000F208010A780A49C7
:103BA0000A700A490A880A490A800A490A880A49A1
:103BB0000A8001B0704700BF1E2D0020102D00208C
:103BC000222D0020122D0020192D00201C2D002058
:103BD000142D0020202D0020162D00200248016801
:103BE000C1F30030704700BF100C024081B0CDF827
:103BF00000E008B413460A46C1B20448FEF724FFA9
:103C000001B0DDF800E001B0704700BF005C00408B
:103C100081B0CDF800E00348FEF756F8DDF800E08B
:103C200001B070470044004081B0CDF800E0034887
:103C3000FEF770F8DDF800E001B070470044004086
:103C400081B0CDF800E00348FEF748F8DDF800E069
:103C500001B070470044004081B0CDF800E0034857
:103C6000FEF73CF8DDF800E001B070470048004086
:103C700081B0CDF800E00348FEF726F8DDF800E05B
:103C800001B07047007C004081B0CDF800E00348EF
:103C9000FEF740F8DDF800E001B070470048004052
:103CA00083B0CDF800E005213C48017040F6144097
:103CB000C4F202004FF001014FEA0131384A89B2E3
:103CC00006F0C2FEFEF70CFA00210A290AD2ADF86E
:103CD0000410FF20334C2468A047BDF80410481C92
:103CE00081B2F2E7FEF76AF8952200210020FEF784
:103CF0001BF8ADF80800FEF7F3F9BDF8080001283D
:103D000001D0012046E0FEF759F8872240F2AA11BF
:103D10000820FEF709F8ADF80800FF20214C2468C0
:103D2000A047FF201F4C2468A047FF201D4C24689B
:103D3000A047FF201B4C2468A047FEF7D1F9BDF82F
:103D40000800012807D00120FEF742F810B100203A
:103D5000FEF73EF802E00220FEF73AF80F4800783E
:103D6000052801D1022015E00C480078042810D065
:103D7000FEF724F8FF2240F200211020FDF7D4FFC7
:103D8000ADF80800FEF7ACF9BDF8080008B1032053
:103D900000E00020DDF800E003B070479716002037
:103DA00014000800B82C002083B0CDF800E00446D1
:103DB00004F0FF031A09104603F00F029446220A8A
:103DC00002F00F02934620E0324A029233E0324A78
:103DD000029230E0314A02922DE0314A02922AE00A
:103DE000304A029227E0304A029224E02F4A02929F
:103DF00021E02F4A02921EE02E4A02921BE02E4A38
:103E0000029218E02D4A029215E00028DCD0012829
:103E1000DDD00228DED00328DFD00428E0D005283A
:103E2000E1D00628E2D00728E3D00828E4D009280A
:103E3000E5D00A28E6D0012212B202FA0CF2ADF85F
:103E4000042002980A46BDF8041006F0FDFD029A0F
:103E500002F22001BCF1070F08D90A1D1046ACF18F
:103E60000802114601910146019800E06046830076
:103E70004FF00F029A40D3430A681A400A6082004A
:103E80000BFA02F30A681A430A60DDF800E003B097
:103E9000704700BF000002400004024000080240DA
:103EA000000C0240001002400014024000180240C2
:103EB000001C024000200240002402400028024072
:103EC00081B0CDF800E00348FDF7FEFEDDF800E02C
:103ED00001B070470010014081B0CDF800E0034808
:103EE000FDF718FFDDF800E001B070470010014059
:103EF00081B0CDF800E01E4908701E490A781E49BD
:103F00000978914214D1FFF753FB1C49097800232B
:103F10000122C8B21649FFF737FB18490978012377
:103F20000122C8B21249FFF75DFD114908781AE075
:103F300013490A7810490978914214D10C4A117832
:103F400041F08001117000200E4C2468A04702222D
:103F500007490748FFF74AFC01200A4C2468A0479C
:103F600009490878FFE7DDF800E001B0704700BFBD
:103F7000AB2D0020E7120020BF270020482800209A
:103F80006E1600204C280020AC2D002082B0CDF809
:103F900000E040F24C00214C2468A04700201F4C58
:103FA0002468A04700201D4C2468A04700201B4C1B
:103FB0002468A0470020194C2468A047FF20174C14
:103FC0002468A0470022ADF80420FF20134C246889
:103FD000A047BDF8042083B2511C8AB200F08000D3
:103FE00080B210B1642A00D2EDE703F0800080B205
:103FF00038B1ADF80430FEF773F8BDF8043098B26C
:1040000008E0FF20054C2468A0470028F9D0FEF7FF
:1040100067F80020DDF800E002B07047B82C0020FF
:1040200081B0CDF800E0FD20084C2468A047FF20B7
:10403000064C2468A047B0F1FF0F00D0F7E7FEF769
:104040004FF80020DDF800E001B07047B82C0020E8
:1040500082B0CDF800E0FDF74BFF08B1012022E06F
:10406000FEF7AAFA08B101201DE01148006801908E
:104070000F4801686FF4C05001400D4801600D48C1
:1040800000680004FEF764FBC1B239B9019800F47E
:10409000C050FEF785FBC1B20A4600E00A4601990E
:1040A0000348016090B2DDF800E002B0704700BF45
:1040B000042C0140AC16002081B0CDF800E003488C
:1040C000FDF728FEDDF800E001B07047007C0040FD
:1040D00081B0CDF800E00348FDF71CFEDDF800E0FC
:1040E00001B070470050004081B0CDF800E00348B7
:1040F000FDF7EAFDDDF800E001B070470048004040
:1041000081B0CDF800E00348FDF7DEFDDDF800E00A
:1041100001B070470050004081B0CDF800E0034886
:10412000FDF7DCFDDDF800E001B070470050004015
:1041300081B0CDF800E00348FDF7D0FDDDF800E0E8
:1041400001B07047004C004081B0CDF800E003485A
:10415000FDF7E0FDDDF800E001B07047004C0040E5
:1041600081B0CDF800E00348FDF7AEFDDDF800E0DA
:1041700001B07047004C004081B0CDF800E003482A
:10418000FDF7C8FDDDF800E001B0704700780040A1
:1041900081B0CDF800E00348FDF796FDDDF800E0C2
:1041A00001B070470078004081B0CDF800E00348CE
:1041B000FDF794FDDDF800E001B07047007C0040A1
:1041C00081B0CDF800E00348FDF788FDDDF800E0A0
:1041D00001B070470078004081B0CDF800E003489E
:1041E000FDF77CFDDDF800E001B0704700140140F0
:1041F00081B0CDF800E00348FDF78CFDDDF800E06C
:1042000001B070470014014081B0CDF800E00348D0
:10421000FDF75AFDDDF800E001B0704700140140E1
:1042200081B0CDF800E00348FEF77AFDDDF800E04C
:1042300001B070470058004082B0CDF800E0002087
:104240008DF804000026294801686FF07E40411A6D
:1042500027480068884204D92648864201D8761C3F
:10426000F1E72448864201D80026FFE700212248D2
:1042700001600C21214801604FF04001204801609D
:104280004FF000011F4801604FF480611E4801603B
:104290001948FCF77BFE0C20FCF7DCFD08B101207F
:1042A0001FE01A48FCF7D6FC01A8FEF705FBC1B2D7
:1042B00089B99DF80400072804D09DF80400062859
:1042C00000D008E00B48864205D801A8FEF7F4FAB2
:1042D000C1B2761CECE70748864201D9012000E014
:1042E000C8B2DDF800E002B0704700BFE82C002043
:1042F000302C0140FFFF1F00BC2C0020C02C0020F0
:10430000C42C0020C82C0020CC2C0020FF0500006D
:1043100081B0CDF800E00120FEF730F90020FEF773
:1043200037F90020FEF73EF94FF000011248016016
:104330001248FCF7B5FA0021114801600C21114820
:1043400001604FF04001104801604FF000010F483C
:1043500001604FF480610E4801600948FCF716FEC9
:104360000C20FCF777FDC2B20A48FCF773FCD0B210
:10437000DDF800E001B07047E42C0020D02C0020D4
:10438000BC2C0020C02C0020C42C0020C82C0020F5
:10439000CC2C0020FF05000081B0CDF800E00348E0
:1043A000FDF79CFCDDF800E001B070470010014013
:1043B00081B0CDF800E008B413460A46C1B2044803
:1043C000FEF742FB01B0DDF800E001B0704700BF2E
:1043D0000054004081B0CDF800E00348FEF7A0FC97
:1043E000DDF800E001B07047005C004081B0CDF81E
:1043F00000E008B413460A46C1B20448FEF724FBA5
:1044000001B0DDF800E001B0704700BF0058004087
:1044100081B0CDF800E00348FEF782FCDDF800E053
:1044200001B070470060004081B0CDF800E0034863
:10443000FEF776FCDDF800E001B070470054004064
:1044400081B0244900EA01010846002218E0012059
:1044500038E0022036E0042034E0082032E010206A
:1044600030E020202EE040202CE080202AE040F2A6
:10447000001027E040F2002024E040F2004021E05C
:1044800015498842E3D015498842E2D01449884250
:10449000E1D014498842E0D013498842DFD0134963
:1044A0008842DED012498842DDD012498842DCD0F1
:1044B00011498842DBD011498842DBD0104988423B
:1044C000DBD010460F49096841EA00020D490A6035
:1044D00001B0704700FCFFFF0000024000040240F2
:1044E00000080240000C024000100240001402408C
:1044F00000180240001C024000200240002402403C
:104500000028024030380240024A116860F34D3101
:1045100011607047140C024081B000910146009870
:104520000B461C465A1C15460346421C10461A7878
:10453000227022780AB12B46F3E7084601B0704793
:1045400081B0CDF800E02549087025490A78254951
:10455000097891421BD1FFF72BF8234909780023F2
:104560000122C8B21D49FFF70FF81F49097801233E
:104570000222C8B21949FFF735FA184909780A0228
:1045800092B21A49097842EA010188B221E0184939
:104590000A781449097891421BD1104A117841F0E8
:1045A000800111700020134C2468A04703220B499E
:1045B0000A48FFF71BF901200E4C2468A0470B495D
:1045C00009780A0292B20C49097842EA010188B2DC
:1045D000FFE7DDF800E001B0704700BFB02D00201C
:1045E000E7120020BF27002048280020B12D00201E
:1045F0006E1600204C280020B22D0020024A1168BF
:1046000060F34511116070471404024081B0054603
:10461000A91D097801F21E0424B2E0B2E2B22F49CA
:1046200002FB01F7E1B28A08D2B22D4951437F184B
:10463000691D0978491EC9B20026C4B2C8B28642B3
:1046400033D266B1022E0AD0042E08D0062E06D030
:10465000072E04D0092E02D00B2E00D002E02149F3
:104660007F181FE0032E06D0052E04D0082E02D09E
:104670000A2E00D003E01C4979180F4612E004F21C
:10468000B2731BB2042212B293FBF2F102FB11319E
:1046900009B211B91549791803E0154979180A4684
:1046A00011460F46761CF6B2C9E7291D09784A1E45
:1046B00012B20B4951437B18A91C0978CAB240F6C3
:1046C000106151435B18691C0978CAB23C215143FF
:1046D0005A1829785118084601B070478033E10113
:1046E0008051010080DE2800008D2700803B2600DD
:1046F00000EA2400024A116860F345111160704716
:104700001400024081B0CDF800E0019D2C4610B4A9
:1047100008B493B28AB201460348FEF7C1FD02B065
:10472000DDF800E001B0704700440040024A116823
:1047300060F38611116070471400024081B0CDF81B
:1047400000E00C4A11686FF3CF311160C1B2002054
:10475000FFF772F8074A11686FF3CB21116000BFB1
:10476000044A116841F400611160DDF800E001B015
:10477000704700BF1414024086B0CDF800E00390EB
:1047800001A90722002006F077FA0399059101A9F3
:10479000097801F07F01C9B2C8B2FFF7F9F80599AD
:1047A00008700399491C059101A9491C097801F079
:1047B0007F01C9B2C8B2FFF7EBF8059908700399F9
:1047C000891C059101A9891C097801F03F01C9B232
:1047D000C8B2FFF7DDF8059908700399C91C059167
:1047E00001A9C91C097801F00701C9B2C8B2FFF7D5
:1047F000CFF8059908700399091D059101A9091DB4
:10480000097801F03F01C9B2C8B2FFF7C1F80599B4
:1048100008700399491D059101A9491D097801F006
:104820001F01C9B2C8B2FFF7B3F805990870039920
:10483000891D059101A9891D097801F0FF01C9B2FF
:10484000C8B2FFF7A5F805990870DDF800E006B0DA
:104850007047FFFF81B00A4681B200208DB2114639
:10486000052805D20B1820221A70401CC0B2F7E7A9
:104870000B1800221A70401EC0B20C180A23B5FB98
:10488000F3F203FB125292B2303222700A22B5FBCD
:10489000F2F292B295B202B902E0401EC0B2ECE769
:1048A00001B07047024A116860F30001116070475F
:1048B0001414024081B0CDF800E0FEF7EBFF934BFB
:1048C000934890F90000B0F1FF3F02D1FF2040B2C1
:1048D0008AE18F4890F900106FF00300814202D105
:1048E000FF2040B280E18A4890F9000000283FD1C3
:1048F0008848007800F00F00C0B2C1B20B2808D081
:104900000C2906D0F82149B281480170FF2040B23D
:104910006AE181480068FDF7BBFD10B1FF2040B29D
:1049200062E17A4B03F5FF70FDF7A8FD4AF65521C9
:10493000884206D0FC2149B275480170FF2040B280
:1049400052E11878E92809D01878EB2804D1981C8E
:104950000078902800D101E0002000E0012030B96B
:10496000FB2149B26A480170FF2040B23CE116E0E9
:10497000674890F900106FF0040081420FD1802148
:104980006648017000216448016003F22000FDF7D1
:10499000E3FD63490860002149B25D4801705C484D
:1049A00090F90000002840F0198103F20B00FDF798
:1049B00065FD5C49088003F20D00FDF759FD5A4979
:1049C000087003F20E00FDF759FD5849088003F204
:1049D0001000FDF74DFD5649087003F22400FDF765
:1049E000BBFD5449086003F22800FDF747FD52491A
:1049F00008804E4801884848006841184F480160C7
:104A000003F22C00FDF7A8FD4D49086003F21100E8
:104A1000FDF734FD4B49088003F23000FDF72EFD11
:104A20003D490968091848480160444801684748F9
:104A3000016000233E480078834208D23D48026866
:104A400042490868801808605B1CDBB2F2E7354A0F
:104A50001088410989B23E480160104600888108EB
:104A600089B23C48016010460088FEF7FFFE3A49D3
:104A700008702D480078FEF7F9FE38490870344870
:104A80000068FEF7F3FE3649087032480068FEF70A
:104A9000EDFE34490870314801782F4800784118FC
:104AA00009B231480170C9B24FF0010000FA01F1BA
:104AB0002E4801602020FEF7D9FE2B490978091AFB
:104AC00009B24FF0010000FA01F1294801600846DF
:104AD000FEF7CCFE27490870194801682648016096
:104AE0000021264801600C48016818480068411AF6
:104AF0000B480068411A1948007821FA00F0811C1F
:104B00001F4801600348007800F03CB8D42800201A
:104B10007228002095280020982800209428002042
:104B20009C280020A0280020A2280020A4280020E3
:104B3000A6280020A8280020AC280020B0280020AB
:104B4000B4280020B8280020C0280020BC2800205D
:104B5000F02B0020F42B00207E2C00207C2C002049
:104B60000A2C002073280020012C0020802C00201B
:104B7000D42A00207D2C002090280020EC2B00203F
:104B8000CC280020B0B91A4801684FF6F77081426E
:104B900003D30B21174801700CE01548016840F65B
:104BA000F770814203D306211248017002E001210F
:104BB000104801700F48007800F00F00C0B2C1B279
:104BC0000B2808D00C2906D0F82149B20A480170F8
:104BD000FF2040B208E0002040B205E0FB2149B2CE
:104BE00005480170FF2040B2DDF800E001B07047D9
:104BF000CC2800209528002072280020024A116845
:104C000060F341011160704714140240024A1168B8
:104C100060F34101116070471404024081B0CDF887
:104C200000E014480078022805D113480068401CB1
:104C300000F046FB1AE00F48007830B9FF2149B276
:104C40000E480170FF2040B210E00D48FEF7BEFE96
:104C500030B1FF2149B209480170FF2040B205E0A0
:104C600005490868401C0860002040B2DDF800E0FB
:104C700001B07047002C0020D028002072280020AE
:104C8000D428002081B0CDF800E0034603F21601DD
:104C90000846FDF7F3FBC10A89B201F01F02204963
:104CA0000A7003F216010846FDF7E8FB410989B2D4
:104CB00001F03F021B490A7003F216010846FDF796
:104CC000DDFB410089B201F03F0217490A7003F28F
:104CD00018010846FDF7D2FB410A89B201F07F01B5
:104CE00089B2124A118001F2BC71118003F21801DD
:104CF0000846FDF7C3FB410989B201F00F020C49D8
:104D00000A7003F218010846FDF7B8FB00F01F0215
:104D100008490A70002040B2DDF800E001B0704799
:104D2000062C0020072C0020082C0020022C00203C
:104D3000042C0020052C002081B0CDF800E00346B3
:104D400003F20E010846FDF799FBC10A89B201F092
:104D50001F0220490A7003F20E010846FDF78EFB80
:104D6000410989B201F03F021B490A7003F20E01AA
:104D70000846FDF783FB410089B201F03F02174965
:104D80000A7003F210010846FDF778FB410A89B268
:104D900001F07F0189B2124A118001F2BC711180C9
:104DA00003F210010846FDF769FB410989B201F0E1
:104DB0000F020C490A7003F210010846FDF75EFB72
:104DC00000F01F0208490A70002040B2DDF800E040
:104DD00001B07047942C0020952C0020962C0020C8
:104DE000902C0020922C0020932C0020024A116865
:104DF00060F3451111607047140C0240024A1168BB
:104E000060F34101116070471410024081B0CDF889
:104E100000E0034C2468A047DDF800E001B07047D3
:104E2000C416002082B0019100F21C0301AC22786C
:104E30001A7000F21C02531C621C12781A7000F2E5
:104E40001C02931CA21C12781A7000F21C02D31CC4
:104E5000E21C12781A70002040B202B07047FFFFC7
:104E600081B0CDF800E01A48007810B9002040B2B7
:104E700029E0184E40F2002212B20021154800F03D
:104E800035F81548306006F5F2711448086006F5EB
:104E9000F47113480068086006F5F671114800685F
:104EA000086006F5FF714AF6552008800E48006834
:104EB000FDF7FCFF10B1FF2040B204E000210448E0
:104EC0000170002040B2DDF800E001B0704700BF83
:104ED000EB2B0020D42800205252614172724161B4
:104EE000C4280020C8280020C028002081B013B2A8
:104EF0000246C8B211461DB22CB26B1E1DB214B1CF
:104F00000870491CF8E7104601B07047024A116862
:104F100060F3C301116070471400024083B0CDF804
:104F200000E08DF8040002910B4C0C4B1C600C4C03
:104F30000C4B1C600C4C236843F4805323601046D8
:104F400001F00AF8029A9DF804100848FEF746FBA3
:104F5000DDF800E003B07047F91C0008B82C002011
:104F6000B5BC00080C2D0020443802400030014040
:104F7000024A116860F34511116070471400024045
:104F8000024A116860F386111160704714000240F4
:104F900081B006490968421A054909788A400549DD
:104FA00009688918084601B0704700BFB42800207E
:104FB0007C2C0020BC280020024A116860F3C30149
:104FC000116070471408024086B0CDF800E00590EB
:104FD0000846204A127820FA02F31F4A12689C18E9
:104FE00002941E4A1268521E00EA020293001C4AF2
:104FF000D21804922046FDF74BFA10B1FF2040B2C0
:1050000024E0059B049A1360029A039200228DF813
:105010000420144A13789DF804209A4211D2039870
:10502000FDF744FF10B1FF2040B20FE00E4A1368B5
:10503000039AD21803929DF80420521C8DF8042084
:10504000E7E7029B094A1360002040B2DDF800E068
:1050500006B0704773280020B0280020F42B0020F1
:10506000D4280020A6280020A8280020D02800202E
:1050700082B0CDF800E028490870BDF80410274937
:105080000A782749097891421DD1FEF791FA2549FE
:10509000097800230122C8B21F49FEF775FA214999
:1050A000097801230222C8B21B49FEF79BFC1E4966
:1050B00009780A0292B21849097842EA0101ADF86A
:1050C000041088B223E019490A78154909789142F9
:1050D0001DD1114A117841F0800111700020144C4B
:1050E0002468A04703220C490B48FEF77FFB0120F0
:1050F0000F4C2468A0470F4909780A0292B20A4966
:10510000097842EA0101ADF8041088B2FFE7DDF842
:1051100000E002B0704700BFA62D0020E71200207B
:10512000BF27002048280020A72D00206E16002051
:105130004C280020A82D0020024A116860F3451178
:105140001160704714040240024A116860F30C3188
:1051500011607047140C024083B0CDF800E0134C8E
:1051600024688DF80400A0479DF8040002AA10707E
:105170000F49097849084FF00003C8B211460122CF
:105180000C4C2468A04702AA0949097849084FF045
:105190000103C8B211460122074C2468A04702A9A6
:1051A0000978C8B2DDF800E003B07047AC2C0020ED
:1051B000362D0020B42C0020B02C002081B0CDF87A
:1051C00000E0134A11686FF34D311160114A116804
:1051D00041F480511160104A116841F4004111609E
:1051E000FEF712FC0D4A11686FF3CB2111601168B4
:1051F00041F400611160064A116841F400511160E8
:10520000FEF70EFCFEF70CFCDDF800E001B0704785
:1052100014140240141402401414024014140240E6
:1052200081B0CDF800E00B4A116841F400411160F3
:10523000FEF7EAFB084A11686FF3CB21116000BF4B
:10524000054A116841F400611160DDF800E001B029
:10525000704700BF141402401414024081B0CDF80E
:1052600000E0FEF7DDFBFEF7DBFB114A11686FF390
:105270004D3111600F4A116841F4805111600E4A9E
:1052800011686FF3CF311160FEF7BEFB0B4A116856
:105290006FF3CB211160116841F400611160044A81
:1052A000116841F400511160DDF800E001B0704771
:1052B0001414024014140240141402401414024046
:1052C00082B0CDF800E0019022490978032909D184
:1052D000FCF7C2F930B1FF2252B21F490A70FF2019
:1052E00040B233E01B490978012906D1FF2252B2AE
:1052F00019490A70FF2040B228E0019A174909684D
:10530000914205D1022213490A70002040B21DE0EB
:105310000198FEF74BFB30B1FF2252B20E490A70E2
:10532000FF2040B212E00E48FEF750FB30B1FF22E2
:1053300052B209490A70FF2040B207E00122054934
:105340000A70019A05490A60002040B2DDF800E0C9
:1053500002B07047002C002072280020D0280020C6
:10536000D4280020024A116860F38201116070475E
:1053700014080240024A116860F30411116070477A
:105380001400024081B0CDF800E00A46014603480F
:1053900003F0B4FDDDF800E001B0704700580040B4
:1053A00082B0CDF800E040F20004ADF80440064CB5
:1053B0002468A047BDF9041041EA000000B2DDF8FE
:1053C00000E002B0704700BF8028002081B00B468B
:1053D000014618460D4614B2531E1AB224B1037882
:1053E0002B706D1C401CF6E7084601B07047FFFFAC
:1053F00083B0CDF800E0984603460E46174606F205
:10540000FF04019403F20B042046FDF731F8019CE0
:10541000207006F58074019403F21C042046FDF709
:105420009BF8019C206006F58274029403F2140438
:105430002046FDF723F884B22404019403F21A04F1
:105440002046FDF71BF8019C2518029C256003F2FD
:105450000B04247804F03F04E4B20F2C0FD0FF2299
:1054600012B200213046FFF741FD42463946304630
:10547000FDF734FE10B1FF2040B204E001E000244B
:105480003470002040B2DDF800E003B07047FFFF49
:10549000024A116860F34101116070471414024020
:1054A000024A116860F30001116070471414024051
:1054B000024A116860F30411116070471410024031
:1054C000024A116860F34D311160704714080240C0
:1054D00081B0CDF800E00C4A116841F40041116040
:1054E000C1B20020FEF7A8F9074A11686FF3CB217B
:1054F000116000BF044A116841F400611160DDF8D9
:1055000000E001B0704700BF14140240024A116865
:1055100060F300011160704714040240024A1168F0
:1055200060F30001116070471410024082B0CDF8A2
:1055300000E00346164909688B4204D315490968FF
:105540008B4200D206E0F42252B213490A706FF087
:10555000704019E01149097823FA01F210490968ED
:10556000511801930846FCF793FF019B10B16FF0AF
:10557000704009E00B490968491E03EA01018A00ED
:105580000949891809680846DDF800E002B070474B
:10559000B4280020CC280020722800207328002086
:1055A000B0280020F42B0020D428002082B0CDF8B1
:1055B00000E040F20004ADF80440054C2468A04728
:1055C000BDF90440044320B2DDF800E002B07047AA
:1055D0008428002082B0CDF800E040F20004ADF84D
:1055E0000440044C2468A047BDF90400DDF800E045
:1055F00002B0704788280020024A116860F3C30196
:105600001160704714000240024A116860F34511AE
:1056100011607047140C024081B0CDF800E00B4AD5
:1056200011686FF3CF311160FEF7EEF9084A116887
:105630006FF3CB21116000BF054A116841F400618E
:105640001160DDF800E001B0704700BF14140240A3
:105650001414024081B0CDF800E0154A1070154ACC
:105660001170154A1378154A12789A4209D1FDF73C
:105670009FFF134A127801230D49D0B20222FDF791
:1056800083FF104A13780D4A12789A420CD10020F9
:105690000D4C2468A04702220C490548FEF7A6F8E5
:1056A0000120094C2468A047DDF800E001B07047F4
:1056B000A02D0020A12D0020E7120020BF270020F0
:1056C000482800206E1600204C280020A32D002022
:1056D00081B0CDF800E001460348FEF70DF8DDF893
:1056E00000E001B0704700BF0014014081B000F23B
:1056F0000E014A1C20490978C900117000F20E0100
:105700004C1C1E4B1978CA08D2B221788918217016
:1057100000F20E02194609784901117000F20E03D9
:10572000174909784A08D2B219788918197000F215
:1057300010014A1C13490988A1F2BC7189B24900C1
:10574000117000F210014C1C0F4B1978CA08D2B22C
:1057500021788918217000F2100219460978490150
:10576000117000F2100309490A7819788918197024
:10577000002040B201B07047FC2B0020FD2B002020
:10578000FE2B0020F82B0020FA2B0020FB2B002002
:1057900082B0019100F21A0301AC22781A7000F273
:1057A0001A02531C621C12781A7000F21403A21C15
:1057B00012781A7000F21402531CE21C12781A704C
:1057C000002040B202B0704782B0CDF800E08146C0
:1057D00001218DF8041000218DF8051000218DF8AD
:1057E000061000218DF8071040F20008002700265F
:1057F00099F8001031B9C42252B26A490A70FF20E8
:1058000040B2CAE0484602F0F5FB45B20022D4B2ED
:10581000484602F0EFFB844211DA09EB04010978F3
:10582000C8B2FDF795FB30B9C32252B25D490A7088
:10583000FF2040B2B1E0621CD2B2D4B2E8E75FFA16
:1058400086FB5FFA87FA4C465FFA88F9691E09B24F
:10585000611809782E2905D1691E4FFA81FC4FFA8B
:105860008CF5F3E7002D06DCE22252B24D490A70B6
:10587000FF2040B291E0204602F0BCFB854202DAF4
:1058800062190021117000276BB25FFA8BF5A346F5
:105890005FFA8AF69F420FDA0BEB07010978C8B26C
:1058A000FCF7C6FF10B1012040B276E0791C5FFA28
:1058B00081FC5FFA8CF7EDE70B2B02DD012040B293
:1058C0006BE000225C469A424EDAA1180978C8B211
:1058D000FBF7C8F918B101218DF805102DE0A118CA
:1058E0000978C8B2FBF7AAF918B101218DF80610A2
:1058F00023E0A11809782E291FD1B9F1000F19D181
:105900009DF8051029B19DF8061011B101218DF8FF
:10591000071040F2010900218DF8041000218DF8D4
:10592000051000218DF806105FFA85F8F7B25FFACE
:1059300089F011E0012040B22FE09DF8041019B168
:10594000711CC8B2C1B202E06D1CEDB2F1B25FFAD7
:1059500085F8CFB25FFA89F0511C5FFA88F5FEB284
:105960005FFA80F9CAB2AEE79DF8051029B19DF83B
:10597000061011B101218DF80710082E02D8032D51
:1059800000D802E0012040B207E09DF8071011B1F5
:10599000022040B201E0002040B2DDF800E002B099
:1059A000704700BF7228002081B000F216014A1C27
:1059B00020490978C900117000F216014C1C1E4BD9
:1059C0001978CA08D2B221788918217000F216021B
:1059D000194609784901117000F216031749097830
:1059E0004A08D2B219788918197000F218014A1CB5
:1059F00013490988A1F2BC7189B24900117000F203
:105A000018014C1C0F4B1978CA08D2B2217889189A
:105A1000217000F21802194609784901117000F24C
:105A2000180309490A78197889181970002040B2BA
:105A300001B07047FC2B0020FD2B0020FE2B002026
:105A4000F82B0020FA2B0020FB2B00208BB0CDF888
:105A500000E008906B4A1168069107AB11460A688E
:105A600069490968084611461A46FCF76BFC10B1F3
:105A7000FF2040B2C2E0654909684A1E61490968D1
:105A8000114005914A0162498A1801218DF80410DC
:105A90001046FCF7D1FC8DF805005A4A1168491EE2
:105AA0001160059991B95B490968491E059107ABD9
:105AB00054490A6854490968084611461A46FCF7D1
:105AC00041FC10B1FF2040B298E002E00599491E68
:105AD00005914E4909684A1E059911404A014C49F1
